:020000040000FA
:10000000380220208D0100009101000093010000C2
:1000100000000000000000000000000000000000E0
:10002000000000000000000000000000950100003A
:10003000000000000000000097010000990100008E
:100040009B0100009B0100009B0100009B01000040
:100050009B0100009B0100009B0100009B01000030
:10006000000000009B0100009B0100000000000058
:10007000000000009B0100009B0100009B010000AC
:100080009B0100009B0100009B0100009B01000000
:100090009B0100009B010000000000000000000028
:1000A0009B0100009B010000000000000000000018
:1000B0009B010000000000009B0100009B0100006C
:1000C00000F002F800F052F812A030C808382418E6
:1000D0002D18AC4201D100F049F80FCCA246AB4636
:1000E0000CA730CF2D1B083F3F197C427F1E544484
:1000F0002D090426F441641EAC4201D300F036F809
:100100000126334200D0FB1A3343984754465D46DC
:10011000DFE700003C0A00005C0A0000000000006D
:10012000103A02D378C878C1FAD8520701D330C840
:1001300030C101D504680C60704700000000000069
:100140007047000000000000002300240025002666
:10015000103A01D378C1FBD8520700D330C100D583
:100160000B6070471FB51FBD10B510BD00F078F8CB
:100170001146FFF7F7FF00F07DFA00F090F803B4A6
:10018000FFF7F2FF03BC00F097F8000006480047B5
:10019000FEE7FEE7FEE7FEE7FEE7FEE70348044969
:1001A000024A044B70470000C100000038012020C3
:1001B0003802202038012020704770477047000027
:1001C0000346CA02400D10B510430A1504D001249D
:1001D000E4072043002A05DB0A4CA21A04D4D040CD
:1001E000FF2A00DD002010BD4A00002B01D00120B5
:1001F00000E00020101801225205D042F2D8C817A2
:10020000C04310BD1E0400001F22030C02D10F22A8
:10021000000402D0030E03D004E000200146704722
:100220000002083A030F01D10001121F830F01D110
:100230008000921E002801DB4000521E120551185A
:100240004205C012411810467047C10FC90700D0BF
:100250004042012292071143D6E701218907D3E7E3
:10026000754600F025F8AE46050069465346C008BD
:10027000C000854618B020B5FFF790FF60BCB646B9
:1002800000260027C0C5C0C5C0C5C0C5C0C5C0C503
:10029000C0C5C0C5403D490849008D46704710B5EE
:1002A0000446C046C0462046FFF769FF10BD000067
:1002B000004870471800202001491820ABBEFEE717
:1002C000260002007047811E091F00BFFCD2704744
:1002D000B0B5112212028358174C1C408B888D68D0
:1002E0001D43164B2B401B1983508B890C681C43F4
:1002F0008B7B2343124C1C4080180269114B134026
:10030000E2180261CA7B0B694C69134323430A8BD1
:100310001A430D4B1340026A0C4C14401A19026226
:100320008A7E898B11430A4A0A40016B094B0B40B4
:10033000D1180163B0BDC046FFFEFEFF0001010001
:1003400003030001FCFCFFFE01030301FEFCFCFEB5
:10035000010F0000FEF0FFFF70B50B01C3185468D9
:100360009568254394892C43156956692543D4899A
:1003700024012C4335012543092464021D511378BF
:1003800052781A43BF231A40890040180249445842
:100390009C43A218425070BD10110000B0B54A68CD
:1003A0003B4BC2503B4A80180A78222A58D8930007
:1003B00001A4E3589F46C0465704000061040000B2
:1003C00057040000610400006104000061040000A3
:1003D0006104000061040000610400006104000089
:1003E0006104000061040000610400006104000079
:1003F0006104000061040000450400006104000085
:100400004504000061040000610400006104000074
:100410006104000061040000610400006104000048
:100420006104000061040000610400006104000038
:100430006104000061040000450400006104000044
:100440004504000003231B0704689C4301235B074A
:10045000E318036004E003231B0704689C43046063
:100460000B69C360CB680C4C1C40C36A0B4D1D402C
:100470002B19C36203680A4C1C400460097A1143BB
:100480003F2211400368934359180160B0BDC04634
:100490000818000004180000777702008888FDFF24
:1004A0007F00FFFF10B50122120383180C789C60B7
:1004B0004B7883508978014A815010BD0C1100009F
:1004C00080B58101034800F067F9401EFFF7C5FEC3
:1004D00080BDC0460048E80180B508480849FFF7DC
:1004E000F7FE01208103074A13680B431360064996
:1004F000086006490A6802430A6080BD0080014026
:1005000090090000289001400084014000910140C2
:1005100080B503480021034AFFF71EFF80BDC04697
:1005200000A04240B009000080B5FFF7F1FF80BD98
:100530000D480E49016102690261016001680160B4
:100540000B49416042684260C3208000094A136839
:1005500003431360084801600168016007480121F6
:10056000016001647047C0463480424081000E0043
:100570008100060008350A40C480424090120A40BB
:1005800010B51048002101600320C1430E48024607
:10059000083A13680B401360026801218A43026025
:1005A0000A020368934303600A03031F1C68144391
:1005B0001C60426B1023134343634902026B8A435E
:1005C000026310BD08030B4008010B4010B5094C35
:1005D00009492046FFF766FF08492046FFF7DEFE7F
:1005E000074801210160074802680A430260064883
:1005F000016010BD00400840480B000000002020B2
:1006000008510840585008404444084080B500F064
:1006100011F8FFF78DFFFFF7B3FFFFF785FFFFF737
:100620005BFFFFF7D3FFB820014900220A5480BDC9
:100630007800202010B5094809494160094A5160F5
:10064000094B5960094C61600949016011601960EA
:1006500021601020FFF737FE10BDC04600080A4099
:10066000030000B100280A4000480840008801400B
:100670000100002686B0FFF7C9FF3F4A106801213C
:10068000084310603D4A3E4850603E48906040201C
:100690000190D06010680223039318431060049106
:1006A0004D05002002906424384F049E12E064340B
:1006B00005942046FFF704FF2F4C2268B2432260C6
:1006C000FFF77EFD6060206830432060059C38683D
:1006D000800712D538682842F9D12B48FFF7F3FD7F
:1006E00038682842E3D138682842E0D13868284287
:1006F000DDD138682842F3D0D9E72348FFF7E3FD7E
:100700003868800708D43868800705D438688007BF
:1007100002D438688007F3D51B48FFF7D4FD164A8A
:100720001068049988431060144A1068039988433C
:1007300010600298401C0146C0B2022800D9002176
:100740000291C8B200280E4906D0022803D0012821
:1007500003D1104900E00E4951600198D060106843
:10076000039908431060044A101F002101601068BB
:10077000049908431060ADE70458084000B24240B5
:10078000C8090000009201400071020080330A4055
:10079000480A0000C80A000043088B421AD300220E
:1007A00003098B4279D3030A8B425ED3030B8B423E
:1007B00042D3030C8B4227D30902FF2212BA030C47
:1007C0008B4202D31212090203D0030B8B4233D3A4
:1007D0001AE0D3E0411A8041401C704703460B43A6
:1007E00071D443088B42F5D3002203098B4254D3C2
:1007F000030A8B4239D3030B8B421DD3030C8B426C
:1008000002D394466EE0090AC30B8B4201D3CB039B
:10081000C01A5241830B8B4201D38B03C01A524141
:10082000430B8B4201D34B03C01A5241030B8B4243
:1008300001D30B03C01A5241C30A8B4201D3CB022E
:10084000C01A5241830A8B4201D38B02C01A524113
:10085000430A8B4201D34B02C01A5241030A8B4216
:1008600001D30B02C01A5241CDD2C3098B4201D32E
:10087000CB01C01A524183098B4201D38B01C01AAC
:10088000524143098B4201D34B01C01A5241030923
:100890008B4201D30B01C01A5241C3088B4201D3D2
:1008A000CB00C01A524183088B4201D38B00C01A7F
:1008B000524143088B4201D34B00C01A5241411AA6
:1008C000524110007047CA0F00D04942031000D3B4
:1008D0004042534000229C4603098B422DD3030A19
:1008E0008B4212D38901FC2212BA030A8B420CD329
:1008F000890192118B4208D3890192118B4204D352
:10090000890137D0921100E08909C3098B4201D3D4
:10091000CB01C01A524183098B4201D38B01C01A0B
:10092000524143098B4201D34B01C01A5241030982
:100930008B4201D30B01C01A5241C3088B4201D331
:10094000CB00C01A524183088B4201D38B00C01ADE
:100950005241D9D243088B4201D34B00C01A5241B5
:10096000411A00D201465241104663465B1000D343
:100970004042704763465B1000D3404201B50021FE
:10098000004201D0C9430846C046C04602BD00002F
:100990000000000100010000000000000002010151
:1009A000000001000000000100010000000900003B
:1009B000060000000000002000000000000100010F
:1009C00000000300000000000008C8088F09520A58
:1009D0000F0BC50B710C130DA80D2F0EA60E0E0FCD
:1009E000640FA70FD80FF60FFF0FF60FD80FA70F42
:1009F000640F0E0FA60E2F0EA80D130D710CC50B54
:100A00000F0B520A8F09C808000837077006AD059A
:100A1000F0043A048E03EC025702D0015901F100B0
:100A20009B0058002700090000000900270058001B
:100A30009B00F1005901D0015702EC028E033A04E9
:100A4000F004AD0570063707FF0FFF0FFF0FFF0F14
:100A5000FF0FFF0FFF0FFF0FFF0FFF0FFF0FFF0F26
:100A6000FF0FFF0FFF0FFF0FFF0FFF0FFF0FFF0F16
:100A7000FF0FFF0FFF0FFF0FFF0FFF0FFF0FFF0F06
:100A8000FF0FFF0FFF0FFF0F00000000000000002E
:100A90000000000000000000000000000000000056
:100AA0000000000000000000000000000000000046
:100AB0000000000000000000000000000000000036
:100AC0000000000000000000000880080009800904
:100AD000000A800A000B800B000C800C000D800DBA
:100AE000000E800E000F800FFF0F800F000F800E92
:100AF000000E800D000D800C000C800B000B800A96
:100B0000000A8009000980080008800700078006A5
:100B100000068005000580040004800300038002B5
:100B200000028001000180000000800000018001BF
:100B30000002800200038003000480040005800599
:100B40000006800600078007080000000000000083
:100B5000700B0000000020201800000020010000A1
:100B6000880B00001800202020020000480100002F
:100B700002000000871300000000000000000000D9
:080B800000000000000000006D
:04000005000000C136
:00000001FF
